{
  "_format": "hh-sol-artifact-1",
  "contractName": "VotingSystem",
  "sourceName": "contracts/VotingSystem.sol",
  "abi": [
    {
      "inputs": [],
      "stateMutability": "nonpayable",
      "type": "constructor"
    },
    {
      "anonymous": false,
      "inputs": [
        {
          "indexed": true,
          "internalType": "uint256",
          "name": "candidateId",
          "type": "uint256"
        },
        {
          "indexed": false,
          "internalType": "string",
          "name": "name",
          "type": "string"
        }
      ],
      "name": "CandidateAdded",
      "type": "event"
    },
    {
      "anonymous": false,
      "inputs": [
        {
          "indexed": true,
          "internalType": "address",
          "name": "voter",
          "type": "address"
        },
        {
          "indexed": true,
          "internalType": "uint256",
          "name": "candidateId",
          "type": "uint256"
        }
      ],
      "name": "VoteCast",
      "type": "event"
    },
    {
      "anonymous": false,
      "inputs": [
        {
          "indexed": false,
          "internalType": "bool",
          "name": "isOpen",
          "type": "bool"
        }
      ],
      "name": "VotingStatusChanged",
      "type": "event"
    },
    {
      "inputs": [
        {
          "internalType": "string",
          "name": "_name",
          "type": "string"
        }
      ],
      "name": "addCandidate",
      "outputs": [],
      "stateMutability": "nonpayable",
      "type": "function"
    },
    {
      "inputs": [],
      "name": "admin",
      "outputs": [
        {
          "internalType": "address",
          "name": "",
          "type": "address"
        }
      ],
      "stateMutability": "view",
      "type": "function"
    },
    {
      "inputs": [
        {
          "internalType": "uint256",
          "name": "",
          "type": "uint256"
        }
      ],
      "name": "candidates",
      "outputs": [
        {
          "internalType": "uint256",
          "name": "id",
          "type": "uint256"
        },
        {
          "internalType": "string",
          "name": "name",
          "type": "string"
        },
        {
          "internalType": "uint256",
          "name": "voteCount",
          "type": "uint256"
        }
      ],
      "stateMutability": "view",
      "type": "function"
    },
    {
      "inputs": [],
      "name": "candidatesCount",
      "outputs": [
        {
          "internalType": "uint256",
          "name": "",
          "type": "uint256"
        }
      ],
      "stateMutability": "view",
      "type": "function"
    },
    {
      "inputs": [
        {
          "internalType": "uint256",
          "name": "_candidateId",
          "type": "uint256"
        }
      ],
      "name": "getCandidate",
      "outputs": [
        {
          "internalType": "uint256",
          "name": "id",
          "type": "uint256"
        },
        {
          "internalType": "string",
          "name": "name",
          "type": "string"
        },
        {
          "internalType": "uint256",
          "name": "voteCount",
          "type": "uint256"
        }
      ],
      "stateMutability": "view",
      "type": "function"
    },
    {
      "inputs": [],
      "name": "getVotingStatus",
      "outputs": [
        {
          "internalType": "bool",
          "name": "",
          "type": "bool"
        }
      ],
      "stateMutability": "view",
      "type": "function"
    },
    {
      "inputs": [
        {
          "internalType": "address",
          "name": "_voter",
          "type": "address"
        }
      ],
      "name": "hasVoted",
      "outputs": [
        {
          "internalType": "bool",
          "name": "",
          "type": "bool"
        }
      ],
      "stateMutability": "view",
      "type": "function"
    },
    {
      "inputs": [],
      "name": "startVoting",
      "outputs": [],
      "stateMutability": "nonpayable",
      "type": "function"
    },
    {
      "inputs": [],
      "name": "stopVoting",
      "outputs": [],
      "stateMutability": "nonpayable",
      "type": "function"
    },
    {
      "inputs": [
        {
          "internalType": "uint256",
          "name": "_candidateId",
          "type": "uint256"
        }
      ],
      "name": "vote",
      "outputs": [],
      "stateMutability": "nonpayable",
      "type": "function"
    },
    {
      "inputs": [
        {
          "internalType": "address",
          "name": "",
          "type": "address"
        }
      ],
      "name": "voters",
      "outputs": [
        {
          "internalType": "bool",
          "name": "hasVoted",
          "type": "bool"
        },
        {
          "internalType": "uint256",
          "name": "votedFor",
          "type": "uint256"
        }
      ],
      "stateMutability": "view",
      "type": "function"
    },
    {
      "inputs": [],
      "name": "votingOpen",
      "outputs": [
        {
          "internalType": "bool",
          "name": "",
          "type": "bool"
        }
      ],
      "stateMutability": "view",
      "type": "function"
    }
  ],
  "bytecode": "0x608060405234801561001057600080fd5b50336000806101000a81548173ffffffffffffffffffffffffffffffffffffffff021916908373ffffffffffffffffffffffffffffffffffffffff1602179055506000600460006101000a81548160ff0219169083151502179055506115568061007b6000396000f3fe608060405234801561001057600080fd5b50600436106100b45760003560e01c8063462e91ec11610071578063462e91ec14610191578063581c281c146101ad578063a3ec138d146101cb578063a95824b4146101fc578063f851a4401461021a578063fab2f86b14610238576100b4565b80630121b93f146100b957806309eef43e146100d55780631ec6b60a146101055780632d35a8a21461010f5780633477ee2e1461012d57806335b8e8201461015f575b600080fd5b6100d360048036038101906100ce9190610b44565b610242565b005b6100ef60048036038101906100ea9190610bcf565b610487565b6040516100fc9190610c17565b60405180910390f35b61010d6104e0565b005b610117610613565b6040516101249190610c41565b60405180910390f35b61014760048036038101906101429190610b44565b610619565b60405161015693929190610cec565b60405180910390f35b61017960048036038101906101749190610b44565b6106cb565b60405161018893929190610cec565b60405180910390f35b6101ab60048036038101906101a69190610e5f565b610806565b005b6101b5610949565b6040516101c29190610c17565b60405180910390f35b6101e560048036038101906101e09190610bcf565b610960565b6040516101f3929190610ea8565b60405180910390f35b610204610991565b6040516102119190610c17565b60405180910390f35b6102226109a4565b60405161022f9190610ee0565b60405180910390f35b6102406109c8565b005b600460009054906101000a900460ff16610291576040517f08c379a000000000000000000000000000000000000000000000000000000000815260040161028890610f47565b60405180910390fd5b600260003373ffffffffffffffffffffffffffffffffffffffff1673ffffffffffffffffffffffffffffffffffffffff16815260200190815260200160002060000160009054906101000a900460ff1615610321576040517f08c379a000000000000000000000000000000000000000000000000000000000815260040161031890610fb3565b60405180910390fd5b60008111801561033357506003548111155b610372576040517f08c379a00000000000000000000000000000000000000000000000000000000081526004016103699061101f565b60405180910390fd5b6001600260003373ffffffffffffffffffffffffffffffffffffffff1673ffffffffffffffffffffffffffffffffffffffff16815260200190815260200160002060000160006101000a81548160ff02191690831515021790555080600260003373ffffffffffffffffffffffffffffffffffffffff1673ffffffffffffffffffffffffffffffffffffffff1681526020019081526020016000206001018190555060016000828152602001908152602001600020600201600081548092919061043b9061106e565b9190505550803373ffffffffffffffffffffffffffffffffffffffff167fa36cc2bebb74db33e9f88110a07ef56e1b31b24b4c4f51b54b1664266e29f45b60405160405180910390a350565b6000600260008373ffffffffffffffffffffffffffffffffffffffff1673ffffffffffffffffffffffffffffffffffffffff16815260200190815260200160002060000160009054906101000a900460ff169050919050565b60008054906101000a900473ffffffffffffffffffffffffffffffffffffffff1673ffffffffffffffffffffffffffffffffffffffff163373ffffffffffffffffffffffffffffffffffffffff161461056e576040517f08c379a000000000000000000000000000000000000000000000000000000000815260040161056590611128565b60405180910390fd5b600460009054906101000a900460ff16156105be576040517f08c379a00000000000000000000000000000000000000000000000000000000081526004016105b590611194565b60405180910390fd5b6001600460006101000a81548160ff0219169083151502179055507f9069a1a16ace751e8690f383e12f87b01e8488ba387e626810bd113fef0417f960016040516106099190610c17565b60405180910390a1565b60035481565b6001602052806000526040600020600091509050806000015490806001018054610642906111e3565b80601f016020809104026020016040519081016040528092919081815260200182805461066e906111e3565b80156106bb5780601f10610690576101008083540402835291602001916106bb565b820191906000526020600020905b81548152906001019060200180831161069e57829003601f168201915b5050505050908060020154905083565b60006060600080841180156106e257506003548411155b610721576040517f08c379a00000000000000000000000000000000000000000000000000000000081526004016107189061101f565b60405180910390fd5b6000600160008681526020019081526020016000206040518060600160405290816000820154815260200160018201805461075b906111e3565b80601f0160208091040260200160405190810160405280929190818152602001828054610787906111e3565b80156107d45780601f106107a9576101008083540402835291602001916107d4565b820191906000526020600020905b8154815290600101906020018083116107b757829003601f168201915b505050505081526020016002820154815250509050806000015181602001518260400151935093509350509193909250565b60008054906101000a900473ffffffffffffffffffffffffffffffffffffffff1673ffffffffffffffffffffffffffffffffffffffff163373ffffffffffffffffffffffffffffffffffffffff1614610894576040517f08c379a000000000000000000000000000000000000000000000000000000000815260040161088b90611128565b60405180910390fd5b600360008154809291906108a79061106e565b91905055506040518060600160405280600354815260200182815260200160008152506001600060035481526020019081526020016000206000820151816000015560208201518160010190816108fe91906113c0565b50604082015181600201559050506003547fe83b2a43e7e82d975c8a0a6d2f045153c869e111136a34d1889ab7b598e396a38260405161093e9190611492565b60405180910390a250565b6000600460009054906101000a900460ff16905090565b60026020528060005260406000206000915090508060000160009054906101000a900460ff16908060010154905082565b600460009054906101000a900460ff1681565b60008054906101000a900473ffffffffffffffffffffffffffffffffffffffff1681565b60008054906101000a900473ffffffffffffffffffffffffffffffffffffffff1673ffffffffffffffffffffffffffffffffffffffff163373ffffffffffffffffffffffffffffffffffffffff1614610a56576040517f08c379a0000000000000000000000000000000000000000000000000000000008152600401610a4d90611128565b60405180910390fd5b600460009054906101000a900460ff16610aa5576040517f08c379a0000000000000000000000000000000000000000000000000000000008152600401610a9c90611500565b60405180910390fd5b6000600460006101000a81548160ff0219169083151502179055507f9069a1a16ace751e8690f383e12f87b01e8488ba387e626810bd113fef0417f96000604051610af09190610c17565b60405180910390a1565b6000604051905090565b600080fd5b600080fd5b6000819050919050565b610b2181610b0e565b8114610b2c57600080fd5b50565b600081359050610b3e81610b18565b92915050565b600060208284031215610b5a57610b59610b04565b5b6000610b6884828501610b2f565b91505092915050565b600073ffffffffffffffffffffffffffffffffffffffff82169050919050565b6000610b9c82610b71565b9050919050565b610bac81610b91565b8114610bb757600080fd5b50565b600081359050610bc981610ba3565b92915050565b600060208284031215610be557610be4610b04565b5b6000610bf384828501610bba565b91505092915050565b60008115159050919050565b610c1181610bfc565b82525050565b6000602082019050610c2c6000830184610c08565b92915050565b610c3b81610b0e565b82525050565b6000602082019050610c566000830184610c32565b92915050565b600081519050919050565b600082825260208201905092915050565b60005b83811015610c96578082015181840152602081019050610c7b565b60008484015250505050565b6000601f19601f8301169050919050565b6000610cbe82610c5c565b610cc88185610c67565b9350610cd8818560208601610c78565b610ce181610ca2565b840191505092915050565b6000606082019050610d016000830186610c32565b8181036020830152610d138185610cb3565b9050610d226040830184610c32565b949350505050565b600080fd5b600080fd5b7f4e487b7100000000000000000000000000000000000000000000000000000000600052604160045260246000fd5b610d6c82610ca2565b810181811067ffffffffffffffff82111715610d8b57610d8a610d34565b5b80604052505050565b6000610d9e610afa565b9050610daa8282610d63565b919050565b600067ffffffffffffffff821115610dca57610dc9610d34565b5b610dd382610ca2565b9050602081019050919050565b82818337600083830152505050565b6000610e02610dfd84610daf565b610d94565b905082815260208101848484011115610e1e57610e1d610d2f565b5b610e29848285610de0565b509392505050565b600082601f830112610e4657610e45610d2a565b5b8135610e56848260208601610def565b91505092915050565b600060208284031215610e7557610e74610b04565b5b600082013567ffffffffffffffff811115610e9357610e92610b09565b5b610e9f84828501610e31565b91505092915050565b6000604082019050610ebd6000830185610c08565b610eca6020830184610c32565b9392505050565b610eda81610b91565b82525050565b6000602082019050610ef56000830184610ed1565b92915050565b7f566f74696e67206973206e6f74206f70656e0000000000000000000000000000600082015250565b6000610f31601283610c67565b9150610f3c82610efb565b602082019050919050565b60006020820190508181036000830152610f6081610f24565b9050919050565b7f596f75206861766520616c726561647920766f74656400000000000000000000600082015250565b6000610f9d601683610c67565b9150610fa882610f67565b602082019050919050565b60006020820190508181036000830152610fcc81610f90565b9050919050565b7f496e76616c69642063616e646964617465000000000000000000000000000000600082015250565b6000611009601183610c67565b915061101482610fd3565b602082019050919050565b6000602082019050818103600083015261103881610ffc565b9050919050565b7f4e487b7100000000000000000000000000000000000000000000000000000000600052601160045260246000fd5b600061107982610b0e565b91507fffffffffffffffffffffffffffffffffffffffffffffffffffffffffffffffff82036110ab576110aa61103f565b5b600182019050919050565b7f4f6e6c792061646d696e2063616e20706572666f726d2074686973206163746960008201527f6f6e000000000000000000000000000000000000000000000000000000000000602082015250565b6000611112602283610c67565b915061111d826110b6565b604082019050919050565b6000602082019050818103600083015261114181611105565b9050919050565b7f566f74696e6720697320616c7265616479206f70656e00000000000000000000600082015250565b600061117e601683610c67565b915061118982611148565b602082019050919050565b600060208201905081810360008301526111ad81611171565b9050919050565b7f4e487b7100000000000000000000000000000000000000000000000000000000600052602260045260246000fd5b600060028204905060018216806111fb57607f821691505b60208210810361120e5761120d6111b4565b5b50919050565b60008190508160005260206000209050919050565b60006020601f8301049050919050565b600082821b905092915050565b6000600883026112767fffffffffffffffffffffffffffffffffffffffffffffffffffffffffffffffff82611239565b6112808683611239565b95508019841693508086168417925050509392505050565b6000819050919050565b60006112bd6112b86112b384610b0e565b611298565b610b0e565b9050919050565b6000819050919050565b6112d7836112a2565b6112eb6112e3826112c4565b848454611246565b825550505050565b600090565b6113006112f3565b61130b8184846112ce565b505050565b5b8181101561132f576113246000826112f8565b600181019050611311565b5050565b601f8211156113745761134581611214565b61134e84611229565b8101602085101561135d578190505b61137161136985611229565b830182611310565b50505b505050565b600082821c905092915050565b600061139760001984600802611379565b1980831691505092915050565b60006113b08383611386565b9150826002028217905092915050565b6113c982610c5c565b67ffffffffffffffff8111156113e2576113e1610d34565b5b6113ec82546111e3565b6113f7828285611333565b600060209050601f83116001811461142a5760008415611418578287015190505b61142285826113a4565b86555061148a565b601f19841661143886611214565b60005b828110156114605784890151825560018201915060208501945060208101905061143b565b8683101561147d5784890151611479601f891682611386565b8355505b6001600288020188555050505b505050505050565b600060208201905081810360008301526114ac8184610cb3565b905092915050565b7f566f74696e6720697320616c726561647920636c6f7365640000000000000000600082015250565b60006114ea601883610c67565b91506114f5826114b4565b602082019050919050565b60006020820190508181036000830152611519816114dd565b905091905056fea2646970667358221220afea54589892b1f92846135fc17ba3597533482682d94e009e66f734e53ee86d64736f6c63430008130033",
  "linkReferences": {},
  "deployedLinkReferences": {}
}